:1000000010C01FC01EC01DC01CC01BC01AC019C01C
:1000100018C017C016C015C014C013C012C011C03C
:1000200010C011241FBECFE5D1E0DEBFCDBF20E060
:10003000A0E6B0E001C01D92A336B207E1F74ED2B0
:1000400063C2DECFDC01FA0110828C918623E9F7CE
:1000500085E88A95F1F7000087EC90E00197F1F7C9
:1000600000C000008C91862319F08081816080831C
:1000700087EC90E00197F1F700C000008C91862397
:1000800019F080818260808387EC90E00197F1F71E
:1000900000C000008C91862319F0808184608083E9
:1000A00087EC90E00197F1F700C000008C91862367
:1000B00019F080818860808387EC90E00197F1F7E8
:1000C00000C000008C91862319F0808180618083BC
:1000D00087EC90E00197F1F700C000008C91862337
:1000E00019F080818062808387EC90E00197F1F7BE
:1000F00000C000008C91862319F080818064808389
:1001000087EC90E00197F1F700C000008C91862306
:1001100019F080818068808387EC90E00197F1F787
:1001200000C0000095E89A95F1F7000008959BB390
:10013000982B9BBB9BB3262F209592239BBB9AB3F6
:10014000982B9ABB9AB3962B9ABB1092620090910F
:100150006200941760F4EFECF7E03197F1F700C01C
:100160000000909162009F5F90936200F0CF9AB37D
:10017000809589238ABB8AB382238ABB08951F9303
:10018000CF93DF93182FC62FD0E0D11709F452C0B8
:100190004C2F61E082E0CBDF4C2F61E084E0C7DFD1
:1001A0004C2F61E088E0C3DF4C2F61E080E1BFDFCE
:1001B0004C2F62E081E0BBDF4C2F62E084E0B7DFD0
:1001C0004C2F62E088E0B3DF4C2F62E080E1AFDFCC
:1001D0004C2F64E081E0ABDF4C2F64E082E0A7DFCE
:1001E0004C2F64E088E0A3DF4C2F64E080E19FDFC8
:1001F0004C2F68E081E09BDF4C2F68E082E097DFC6
:100200004C2F68E084E093DF4C2F68E080E18FDFC3
:100210004C2F60E181E08BDF4C2F60E182E087DFD3
:100220004C2F60E184E083DF4C2F60E188E07FDFCA
:10023000DF5FABCFDF91CF911F910895CF93C62F92
:10024000811120C0462F61E084E071DF4C2F61E016
:1002500088E06DDF4C2F61E080E169DF4C2F62E0C8
:1002600080E165DF4C2F62E084E061DF4C2F64E0C9
:1002700082E05DDF4C2F64E080E159DF4C2F68E0C5
:1002800082E05DC0813001F5462F61E084E04FDF00
:100290004C2F61E088E04BDF4C2F62E088E047DFC5
:1002A0004C2F64E088E043DF4C2F68E084E03FDFC0
:1002B0004C2F60E184E03BDF4C2F60E188E037DFCA
:1002C0004C2F60E182E06CC0823001F5462F61E086
:1002D00084E02DDF4C2F61E088E029DF4C2F61E0C6
:1002E00080E125DF4C2F62E080E121DF4C2F64E0CC
:1002F00082E01DDF4C2F64E088E019DF4C2F64E0C2
:1003000080E115DF4C2F68E082E01DC0833021F5CD
:10031000462F61E084E00BDF4C2F61E088E007DFCF
:100320004C2F61E080E103DF4C2F62E080E1FFDED3
:100330004C2F64E088E0FBDE4C2F64E080E1F7DEC8
:100340004C2F68E080E1F3DE4C2F60E182E0EFDECD
:100350004C2F60E184E020C0843021F5462F61E01D
:10036000E6DE4C2F61E080E1E2DE4C2F62E084E0CB
:10037000DEDE4C2F62E080E1DADE4C2F64E082E0CA
:10038000D6DE4C2F64E088E0D2DE4C2F64E080E1C2
:10039000CEDE4C2F68E080E1CADE4C2F60E188E0C1
:1003A000C6DE9AC08530E1F4462F61E084E0BFDE0E
:1003B0004C2F61E088E0BBDE4C2F61E080E1B7DECE
:1003C0004C2F62E084E0B3DE4C2F64E082E0AFDECD
:1003D0004C2F64E088E0ABDE4C2F64E080E121C06C
:1003E000863061F5462F61E084E0A1DE4C2F61E0AC
:1003F00088E09DDE4C2F61E080E199DE4C2F62E0C9
:1004000084E095DE4C2F64E082E091DE4C2F64E0C6
:1004100088E08DDE4C2F64E080E189DE4C2F68E0BF
:1004200082E085DE4C2F68E080E181DE4C2F60E1C8
:1004300082E07DDE4C2F60E184E048C0873081F4AB
:10044000462F61E084E073DE4C2F61E088E06FDED0
:100450004C2F61E080E16BDE4C2F62E080E12EC02A
:10046000883079F4462F61E084E061DE4C2F61E052
:1004700088E05DDE4C2F61E080E159DE4C2F62E0C8
:10048000BBCF893049F5462F61E084E050DE4C2F28
:1004900061E088E04CDE4C2F61E080E148DE4C2FCB
:1004A00062E080E144DE4C2F62E084E040DE4C2FCD
:1004B00064E082E03CDE4C2F64E088E038DE4C2FC4
:1004C00064E080E134DE4C2F68E080E130DE4C2FC8
:1004D00060E188E0CF912BCECF91089580E886BD72
:1004E00016BCDE9AD69841E650E060E489E390E0DD
:1004F000A9DD809161008A3010F48093600061E092
:0C050000809160009BDEEFCFF894FFCFED
:00000001FF
